:100000000C9418030C9435030C9435030C943503AD
:100010000C9435030C9435030C9435030C94350380
:100020000C9435030C9435030C948D180C94CF1755
:100030000C94AE1E0C9435030C9435030C943503CC
:100040000C9435030C9435030C9435030C94350350
:100050000C9435030C946D1E0C9435030C943503ED
:100060000C9435030C9435030C9435030C94350330
:100070000C9435030C9435030C9435030C94350320
:100080000C9435030C9435030C9435030C94350310
:100090000C9435030C9435030C9435030C94350300
:1000A0000C9435030C9435030C94350356075B0709
:1000B000650759075E07630761078F08920895086F
:1000C00098089B089E08A108FF0BFF0B320C320C0E
:1000D000A00CBC0CCE0DCE0DC70C3D0D500D500D1F
:1000E000E2150916B7170916B71755167816B71778
:1000F0006D177D17000000000000000000000000E8
:1001000000000000000000000000000000000000EF
:1001100000000000000000007E0F00D4FFFFFFC7BA
:100120000000007800000000000000002A2B2800DA
:100130000000000000000000000000000000002996
:10014000000000002C1E3420212224342627252ED6
:10015000362D3738271E1F2021222324252633330E
:10016000362E37381F0405060708090A0B0C0D0E3A
:100170000F101112131415161718191A1B1C1D2F06
:100180003130232D350405060708090A0B0C0D0E26
:100190000F101112131415161718191A1B1C1D2FE6
:1001A0003130354C0102E70101500103E7002E0018
:1001B0000057E300E100350000001E0014000400B9
:1001C0000257095D4D001F001A0015001B00015366
:1001D0004C00200009000157035750002A0021005D
:1001E0001300170007004F004A00220005000A0014
:1001F00004570000E30029002C18000003530000FE
:10020000E200B65D1908000002510000E40023007E
:100210000D0010000E000000E70024000F00110088
:100220000B0052004B00250018000800360051005A
:10023000055726001C000C0037002F00280027005F
:1002400033001200380030004E002D003100340021
:10025000E500521100002E000100E300E100010062
:1002600000001E0014000100010001004D001F00ED
:100270001A0016001B0001004C00200008000700B7
:10028000010050002A0021001500090006574F0008
:100290004A00220017000A0005000000E3000100E8
:1002A0000100000001000000E20001000100000068
:1002B00001000000E40023001C000B0007570000B1
:1002C000E700240018000D00100001004B0025007D
:1002D0000C000E00360001002C00260012000F005A
:1002E00037002F00280027001300330038003000AB
:1002F0004E002D0031003400E5000100000029000F
:10030000010001000100010000003A001E0220026D
:100310002202010001003B001F0221022302010012
:1003200001003C002F0224022F00010001003D00CB
:10033000300201003000010001003E0031023500B2
:100340003502000001000100010000000100000072
:1003500001000100010000000100000001003F0059
:100360000100010001000000010040002400210004
:100370001E00270001004100250022001F00370059
:100380000100420026002300200058000100430025
:10039000380025022D002E02010044004500010016
:1003A0000100010000000100010001000100010046
:1003B0000000FD00010001000100095D0100FE00D8
:1003C0000100FB00010001000100FF00F900FA003C
:1003D0000100F100010001000100FC000100F20039
:1003E0000100010001000100010000000100010006
:1003F00001000000010000000100010001000000F8
:1004000001000000010001000100F900FA000000F5
:10041000010001000100EF000100010001000100E6
:10042000ED00EE0001000100F10001000100F0000C
:1004300001000100010001000100010001000100B4
:100440000100F200010001000100010000000501AF
:100450000980A101850319012AB700150126B700FB
:10046000950175108100C0050C0901A101850419D1
:10047000012AA002150126A002950175108100C075
:1004800005010906A1018506050719E029E7150000
:1004900025019508750181020507190029EF15004E
:1004A000250195F0750181020508190129059505B9
:1004B00075019102950175039101C005010902A121
:1004C000010901A100050919012908150025019557
:1004D00008750181020501093009311581257F95D3
:1004E000027508810609381581257F9501750881F7
:1004F00006050C0A38021581257F950175088106CD
:10050000C0C00660FF0961A1010962150026FF0055
:100510009520750881020963150026FF0095207556
:10052000089102C005010906A101050719E029E7A4
:100530001500250195087501810295017508810155
:100540000507190029FF150026FF0095067508818B
:100550000005081901290595057501910295017598
:10056000039101C009027400040100A0FA0904000B
:1005700000010301010009211101000122400007CF
:1005800005810308000109040100020300000009BD
:100590002111010001222200070583032000010729
:1005A00005040320000109040200010301020009FF
:1005B00021110100012247000705820308000109FB
:1005C0000403000103000000092111010001226D54
:1005D0000007058503200001120100020000000849
:1005E00097327449010001020001160345007200B0
:1005F00067006F0044006F007800200045005A003B
:10060000000028035A0053004100200054006500F8
:10061000630068006E006F006C006F006700790077
:1006200020004C0061006200730000000403090414
:1006300011241FBECFEFDAE0DEBFCDBF11E0A0E096
:10064000B1E0EAE7FDE402C005900D92AA3DB107D2
:10065000D9F723E0AAEDB1E001C01D92AC32B20798
:10066000E1F70E94ED190C94BB260C9400009C014C
:100670003A9521153F4130F5BC0166277270AC01F7
:10068000442754709C012227387094FF0FC090FFBC
:1006900002C080E101C080E0672B09F08062452B39
:1006A00009F08064232B79F080680895892F817088
:1006B000672B09F08260452B09F08460232B19F029
:1006C0008860089580E00895FC018281813039F4CA
:1006D000958192FD12C090FF10C082E00895823093
:1006E00039F4858182FD06C080FD06C083E008954F
:1006F00086E0089585E0089584E00895CF93DF9320
:10070000EC010E944F22CE01805E9109089710F003
:10071000209731F4CE010E9437030E943E2205C08B
:10072000CE010E9437030E942D22DF91CF910895C0
:100730008FE39CE90197F1F700C000008091EC0184
:10074000823049F018F4813049F00CC0833031F028
:10075000853021F007C081E198E002C081E190E09E
:100760000E947E031092EC0108958FE39CE90197AB
:10077000F1F700C000008091EA01823049F018F4DE
:10078000813049F00CC0833031F0853021F007C052
:1007900089E198E002C089E190E00E947E03109216
:1007A000EA0108958FE39CE90197F1F700C000008A
:1007B0008091E801833029F0853031F0813041F4B7
:1007C00003C088E290E002C08CE290E00E947E03C9
:1007D0001092E80108958FE39CE90197F1F700C0BA
:1007E00000008091E601823049F018F4813049F030
:1007F0000CC0833031F0853021F007C089E198E0EA
:1008000002C089E190E00E947E031092E601089503
:100810008FE39CE90197F1F700C000008091E401AB
:10082000823049F018F4813049F00CC0833031F047
:10083000853021F007C086E098E002C086E090E0B5
:100840000E947E031092E40108958FE39CE90197D2
:10085000F1F700C000008091E201823049F018F405
:10086000813049F00CC0833031F0853021F007C071
:100870008DE198E002C08DE190E00E947E0310922D
:10088000E20108958FE39CE90197F1F700C00000B1
:100890008091E001823049F018F4813049F00CC0B9
:1008A000833031F0853021F007C086E198E102C045
:1008B00086E190E00E947E031092E00108958FE3AC
:1008C0009CE90197F1F700C000008091DE018230C1
:1008D00049F018F4813049F00CC0833031F0853094
:1008E00021F007C08BE298E002C08BE290E00E940A
:1008F0007E031092DE010895CF93DF93EC01805EBA
:100900009109089710F0209731F4CE010E94370327
:100910000E94452205C0CE010E9437030E94342266
:100920008C2F0E948422DF91CF9108950F931F9303
:10093000CF93DF938C01C99719F0C0E0D0E002C0DB
:10094000C0E5D0E0C8010E947C04209741F08FE907
:100950009FE00197F1F700C000002197F6CFC80192
:100960000E947E03DF91CF911F910F910895CF9345
:10097000DF93EC018A81833061F481E190E00E9491
:10098000960481E190E00E94960481E190E00E944B
:1009900096048A81843020F081E190E00E949604E0
:1009A000DF91CF910895CF93DF93EC018A8183305B
:1009B00061F48CE290E00E9496048CE290E00E9448
:1009C00096048CE290E00E9496048A81843020F0A4
:1009D0008CE290E00E949604DF91CF910895CF932E
:1009E000DF93EC018A81833061F489E190E00E9419
:1009F000960489E190E00E94960489E190E00E94CB
:100A000096048A81843020F089E190E00E94960467
:100A1000DF91CF9108950E94EF040895CF93DF9363
:100A2000EC018A81833061F486E090E00E949604B4
:100A300086E090E00E94960486E090E00E94960492
:100A40008A81843020F086E090E00E949604DF9155
:100A5000CF910895CF93DF93EC018A81833061F4C5
:100A60008DE190E00E9496048DE190E00E94960452
:100A70008DE190E00E9496048A81843020F08DE11F
:100A800090E00E949604DF91CF910895CF93DF9379
:100A9000EC018A81833061F486E190E00E94960443
:100AA00086E190E00E94960486E190E00E94960420
:100AB0008A81843020F086E190E00E949604DF91E4
:100AC000CF910895CF93DF93EC018A81833061F455
:100AD0008BE290E00E9496048BE290E00E949604E4
:100AE0008BE290E00E9496048A81843020F08BE2B1
:100AF00090E00E949604DF91CF9108950E946403D4
:100B00008093EC01823049F018F4813091F008951F
:100B1000833031F0853049F0089581E198E00BC0D1
:100B200081E190E00E947C0404C081E190E00E9499
:100B3000960481E190E00E947C0408950E94640381
:100B40008093EA01823049F018F4813091F00895E1
:100B5000833031F0853049F0089589E198E00BC089
:100B600089E190E00E947C0404C089E190E00E9449
:100B7000960489E190E00E947C0408950E94640339
:100B80008093E801833029F0853031F0813061F4C1
:100B900007C088E290E006C08CE290E00E949604D4
:100BA0008CE290E00E947C0408950E94640380938C
:100BB000E601823049F018F4813091F008958330D5
:100BC00031F0853049F0089589E198E00BC089E162
:100BD00090E00E947C0404C089E190E00E949604A9
:100BE00089E190E00E947C0408950E946403809350
:100BF000E401823049F018F4813091F00895833097
:100C000031F0853049F0089586E098E00BC086E029
:100C100090E00E947C0404C086E090E00E9496046C
:100C200086E090E00E947C0408950E946403809313
:100C3000E201823049F018F4813091F00895833058
:100C400031F0853049F008958DE198E00BC08DE1D9
:100C500090E00E947C0404C08DE190E00E94960424
:100C60008DE190E00E947C0408950E9464038093CB
:100C7000E001823049F018F4813091F0089583301A
:100C800031F0853049F0089586E198E10BC086E1A6
:100C900090E00E947C0404C086E190E00E949604EB
:100CA00086E190E00E947C0408950E946403809392
:100CB000DE01823049F018F4813091F008958330DC
:100CC00031F0853049F008958BE298E00BC08BE25B
:100CD00090E00E947C0404C08BE290E00E949604A5
:100CE0008BE290E00E947C040895A7E1B0E0EBE77E
:100CF000F6E00C9434244B8B5C8B6D8B7E8B8F8B4E
:100D000061111092F40286E09E01235F3F4FD901EA
:100D1000E82F1D92EA95E9F795E0FE017396D90157
:100D200001900D929A95E1F79C894E895F897B89A4
:100D30007D879E876F87598B488BF901DE01179657
:100D400001900D928A95E1F7CE0107960E949511C8
:100D500081113EC086E0FE013796DE0111960190BA
:100D60000D928A95E1F7FF81E8856A857B8561159B
:100D7000710531F0EF3F31F481E0FF3F19F403C01A
:100D800081E001C080E080FD23C02091140230E0AA
:100D9000C9010196877099274091450250E0841758
:100DA000950779F1F983EA837D836C8396E0929FBE
:100DB000D001939FB00D1124AB5EBD4FFE01319663
:100DC00001900D929A95E1F7809314020E942211EE
:100DD00016E08091450290911402891709F1189F3D
:100DE000C00111248B5E9D4F0E9495118823C1F094
:100DF0008091450290E00196877099278093450283
:100E0000E8CF109273020E941922109214021092DD
:100E10004502EEE0F2E086E0DF011D928A95E9F7F7
:100E20006796E3E00C945024982F92959F7019F0E8
:100E3000892F24E001C020E0982F9695969511F017
:100E40002E5F892F982F969509F02F5F822F089596
:100E5000109273020E9419222FEF84E39CE021502C
:100E600080409040E1F700C000009AE088E10FB6B2
:100E7000F894A895809360000FBE90936000FFCF18
:100E8000CF93C82F0E94140756985E9825982D98E6
:100E900026982E9827982F9890E0FC013197E730FC
:100EA000F105A8F4EA5AFF4F0C948725259A2D9A4C
:100EB0000EC0259A2D9A269A2E9A09C0259A2D9A07
:100EC00004C0259A2D9A269A2E9A279A2F9A8C2F0B
:100ED000CF91089580E290E09093180180931701DC
:100EE0008091DC0181110EC00E94412381E080933A
:100EF000DC012FEF83ED90E3215080409040E1F73B
:100F000000C0000060E570E080E40E9447239093F9
:100F1000180180931701892B09F04EC060E570E03D
:100F200080E00E94BA239093180180931701892BC7
:100F300009F042C060E570E080E00E94BA2390931F
:100F4000180180931701892BB9F560E570E08FE3F4
:100F50000E94BA239093180180931701892B61F5A1
:100F60000E940D2460E570E080E40E944723909386
:100F7000180180931701892BF9F460E570E08CE08B
:100F80000E94BA239093180180931701892BA1F432
:100F900060E570E080E00E94BA239093180180938E
:100FA0001701892B49F460E570E08FE30E94BA23B2
:100FB00090931801809317010E940D2480911701CE
:100FC0000895CF93DF9356985E9825982D9826988C
:100FD0002E9827982F98C8E8D0E08FEF90E099835B
:100FE0008883AAE8B0E011969C938E93ECE8F0E039
:100FF00091838083259A2D9A2FEF80E792E02150EC
:1010000080409040E1F700C00000269A2E9A2FEF12
:1010100080E792E0215080409040E1F700C000005E
:10102000279A2F9A2FEF80E792E02150804090403E
:10103000E1F700C0000025982D982FEF80E792E09F
:10104000215080409040E1F700C0000026982E9883
:101050002FEF80E792E0215080409040E1F700C000
:10106000000027982F988091A70287702FEF829F0A
:10107000C001112495958795959587959927998312
:10108000888311969C938E939183808356985E9863
:1010900025982D9826982E9827982F98DF91CF91F4
:1010A0000895CF93E82F873080F5809117019091B4
:1010B0001801892B09F047C0CE2F60E570E080E46D
:1010C0000E9447239093180180931701892BD1F434
:1010D00060E570E082E10E94BA239093180180934A
:1010E0001701892B79F481E090E001C0880FCA953F
:1010F000EAF760E570E080950E94BA2390931801AA
:10110000809317010E940D241EC090E0FC013797C8
:10111000E730F105C0F4E35AFF4F0C948725209A7D
:10112000289811C0219A29980EC0229A2A980BC09B
:10113000239A2B9808C0529A5A9805C0539A5B98E4
:1011400002C03E9A4698CF910895209828982198F9
:10115000299822982A9823982B9852985A9853980D
:101160005B983E9846980895CF93873040F58091DC
:10117000170190911801892B59F560E570E081E421
:101180000E9447239093180180931701892B11F037
:10119000C0E011C080E590E00E94E92397FF05C000
:1011A0009093180180931701F3CFC82FC095109228
:1011B0001801109217010E940D248C2F0AC09FB1B4
:1011C0008FB1807F869586959370892B809501C01D
:1011D00080E0CF9108958098889A8198899A849820
:1011E0008C9A85988D9A86988E9A87988F9A08956A
:1011F000A5E2B0E0EEEFF8E00C942724FC0180813A
:10120000918123813481232B31F09F3F31F491E090
:101210008F3F19F403C091E001C090E090FDFCC441
:101220008F0185E0DE01919601900D928A95E1F79C
:10123000D80112962C9189A19AA1222349F00E94EB
:10124000F520F82E682F89A19AA10E94652103C07C
:101250000E943121F82E69A17AA18F2D0E94550E8E
:101260006C01F80182818823E1F08091F502909170
:10127000F6020097B1F08C159D0599F0FEE08F9F66
:10128000C0011124FC01E25EFE4F20812460208316
:10129000875E9E4FDC01CD92DC920E94521F10921D
:1012A000F4029091A102F8018281992309F44DC0C2
:1012B000811146C2E091ED01E330A0F481E08E0F90
:1012C0008093ED01F0E0EE0FFF1FE452FD4FD801D7
:1012D0008D919C919183808382E08983CE010196D8
:1012E0000E94C119BFEFE3EDF0E3B150E040F040E0
:1012F000E1F700C000008091ED01833009F020C2C9
:101300001092ED01E2EEF2E0ACEDB2E088EE92E098
:10131000318111962C91119732132EC030812C916E
:1013200032132AC0329612968E179F0789F784E0EF
:10133000898381E08093A2028EEF8A831092A102BA
:10134000CE0101960E94C119FBC19091A20299237E
:10135000C1F0811102C087E001C086E08983D80115
:101360008C918A8311968C918B838EEF8C83CE0126
:1013700001960E94C11905C083E089831092A202E0
:10138000DBCFF8018281F3EBCF16FDE5DF06D1F567
:10139000882309F45CC19091A70281E0890F8770CE
:1013A000987F853020F4892B8093A70202C0909308
:1013B000A7028091A7028770BFEF8B9FC001112405
:1013C0009595879595958795992790938900809312
:1013D000880090938B0080938A0090938D00809377
:1013E0008C004091A7025091A8026091A9027091CF
:1013F000AA028FE090E00E94FE248091B9020E9430
:10140000400725C1E6EBCE16EDE5DE0609F0C3C0C8
:10141000882309F41CC144EAE42E41E0F42E5AE08A
:10142000452EF7012491222309F411C1213009F03E
:101430004EC031968491813069F4F2E0EF0EF11CD8
:10144000F7018491893319F060E070E09CC060E599
:1014500070E099C0823041F4F2E0EF0EF11CF70128
:1014600084910E94842293C0833041F4F2E0EF0E15
:10147000F11CF70184910E944F2289C0843009F049
:1014800085C0F2E0EF0EF11CF701249180E090E0BE
:1014900030E0205331092A30310570F4489EA00114
:1014A000499E500D1124C901840F951FFFEFEF1ABB
:1014B000FF0AF7012491ECCF009709F468C0AFE967
:1014C000BFE01197F1F700C000000197F5CFE22FC0
:1014D000F0E0EC5DFE4F5490822F869586958695C0
:1014E00090E0FC01EC5EFE4F64902770712C022EA0
:1014F00002C0759467940A94E2F7B1E06B227724F6
:10150000FC01EC5FFE4F8490912C022E02C095945A
:1015100087940A94E2F7E1E08E229924FC01EC50D2
:10152000FF4FA490B12C02C0B594A7942A95E2F77E
:10153000F1E0AF22BB246114710419F081EE0E9426
:1015400084228114910409F45EC386EE0E948422F1
:1015500029E3521609F451C360E070E0852D0E9422
:1015600029238114910419F086EE0E944F22611400
:10157000710419F081EE0E944F22A114B10439F0D8
:1015800060E070E08CE20E94292301C07F013FEF00
:10159000E31AF30A46CF960137552F3F310511F074
:1015A00008F055C05601BB249EE0C99EF0011124ED
:1015B000DF01A75EBE4F7D01E25EFE4F908180FBA2
:1015C00090F99083F80182818823E1F10E94A21EA4
:1015D0009093DA028093D902D70112968C911297D8
:1015E0008F5F12968C9312979091F4028091730200
:1015F000892B13968C9313978091670214968C9382
:1016000014971696ED91FC911797309731F01C9630
:101610006D917C911D97C70109958EE08A9DF0011F
:101620008B9DF00D1124E25EFE4F808181FD03C091
:101630009C2D8D2D02C090E080E09093F502809368
:10164000F60205C091FF03C0CD010E94381FD801EA
:1016500012968C91882309F486C0BCE5CB16BDE5B3
:10166000DB0609F467C068F4C114FCE5DF06C1F0CD
:101670002FEDC2162CE5D20609F075C00E940A10A3
:101680004EC03EE5C3163DE5D30609F44BC008F451
:1016900053C099EAC9169DE5D90609F440C063C054
:1016A000109273020E941922AFEFB4E3ECE0A15054
:1016B000B040E040E1F700C00000F89481E0809382
:1016C000E00080E28093D8001092C9008FE19EE490
:1016D0000197F1F700C000001DBA109268001CBC11
:1016E00010BE1FBA10927A0010926E0010926F0016
:1016F00010927100109272001092C9001092BC00FA
:1017000014B817B81AB81DB810BA1092BC0015B8A2
:1017100018B81BB81EB811BA0C94003F11C00E9433
:1017200028070EC08091030382FB882780F991E08F
:10173000892703C081E001C080E00E94061113C028
:1017400080914602877009F467C2D80112968C9185
:10175000882309F461C28091030382FF5DC282E0A5
:101760000E94E91059C2F8018281E080F18088234B
:1017700049F0C7010E94F520D82E682FC7010E94AA
:10178000652104C0C7010E943121D82EB7018D2DDB
:101790000E94550E0E946E0E7C01982EF801D28098
:1017A000C580C2943FE0C322809146028770B9F0A1
:1017B000DD20A9F08F2D807F803421F080E28E0D16
:1017C000883068F08091030382FF09C082E00E94A4
:1017D000E910809146028770BB24B3948111B12C2B
:1017E000AF2CA2942FE0A2228A2D90E08C3091059C
:1017F00008F0D4C1FC01EC59FF4F0C9487258F2DC4
:10180000807F9F2D9F70F92E882319F0F29490EF1E
:10181000F922DD20B9F0FF2009F4AEC180E28E0D7F
:10182000883010F0911006C080917302F82AF0926F
:10183000730205C08091F402F82AF092F4020E942B
:1018400094109AC18E2D0E944F22FF2009F4A6C148
:1018500080E28E0D883080F1992071F18F2D0E94E9
:1018600086102DC08F2D807F9F2D9F70F92E803286
:1018700019F0F29480EFF8228E2D992021F0F1E0FA
:101880009F16D9F147C08091030382FD1BC0DD2064
:1018900069F0FF2039F080917302F82AF092730208
:1018A0000E94941080E00E94842278C180E00E940F
:1018B0004F22FF2009F472C18F2D0E948D100E94CB
:1018C00094106CC1DD2081F080916702CC2051F032
:1018D00021E0C21207C0F82AF81609F45FC1F0929D
:1018E00067025CC18F2910C0CC2021F031E0C31603
:1018F00009F454C10E9480101FC0DD2041F081E036
:101900008C1508F44BC18F2D0E94452247C1C11090
:1019100045C112C0DD2019F0CC20A9F32DC1CC2087
:1019200059F0893309F037C19FEFA7EEB3E091502A
:10193000A040B040E1F72DC18F2D0E943E222EC164
:101940008F2D86958695837019F0813059F026C1C8
:10195000DD2019F0C701937002C080E090E00E9482
:10196000151F22C1DD2019F0C701937002C080E06D
:1019700090E00E94FF1E18C18E2DDD2019F00E94FC
:101980007E2002C00E94C41F0E949D1F0DC18F2D8A
:101990008370B1F5D11006C14E2D42954695477022
:1019A000440F440F8E2D8F7090E09C01042E01C0D7
:1019B000220F0A94EAF7E4FE08C08FE090E001C02D
:1019C000880F4A95EAF7809501C080E04F2D469533
:1019D00046954370423069F088F490916802413036
:1019E00019F0822B892302C0922B892B0E94DD21C2
:1019F000D9C0822B909168028927F8CF822BF6CF2D
:101A0000DD2019F08F2D817001C08695882309F49F
:101A1000C9C04E2D429546954770440F440F8E2DF8
:101A20008F7090E09C01042E01C0220F0A94EAF707
:101A3000E4FE08C08FE090E001C0880F4A95EAF705
:101A4000809501C080E04F2D469546954370423009
:101A500059F078F49091B902413019F0822B892322
:101A600009C0922B892B06C0822B9091B90289273D
:101A700001C0822B0E949A2195C0EF2DEF70FE2E9F
:101A8000DD2039F08E2F0E94D1218E2D0E9445221B
:101A900089C08E2D0E943E228F2D0E94C42182C0BB
:101AA0008E2DF2EF9F1671F1F91538F020EF921696
:101AB00059F031EF931609F15BC093EF991649F194
:101AC000A4EF9A16B1F054C0DD2071F0C11066C0C9
:101AD0002F2D2F7181E090E001C0880F2A95EAF741
:101AE0009091B902892720C0B1E0BC1508F456C016
:101AF000EFCF8091030382FD1AC0DD2029F08F2DE6
:101B00008F7129C0DD20D9F38F2D8F710E94C421E0
:101B100045C0DD2041F09F2D9F7181E001C0880FFD
:101B20009A95EAF701C080E00E949A2137C0DD2033
:101B3000A9F0EF2DEF71FE2E8E2F0E94D121809102
:101B4000030382FF07C0F8E0FF9EC00111248360F9
:101B5000809346028F2D0E94D12120C081E00E94F7
:101B6000E91021E02C15D0F482E00E94E91016C0A3
:101B7000DD2021F0CC2019F28E2D95CECC2021F243
:101B8000893349F43FEF87EE93E031508040904035
:101B9000E1F700C000008E2D0E944F2288EF8A0DD1
:101BA000843010F40E942B1FBB20B1F080914602BC
:101BB00080FD12C0D80112961C9285958595859559
:101BC0000E94D121C8010E94F808809146028595A3
:101BD000859585950E94C42185E0F801DE01119666
:101BE00001900D928A95E1F709811A81C8010E943E
:101BF0003121B8010E94550E0FC060E570E089E305
:101C00000E942923B1CCF9E35F12A6CC60E570E015
:101C100089E30E942923ABCCA596E0E10C944324F0
:101C200080E008959091020392FF0DC0282F287143
:101C3000283019F4877F846006C0282F247124304F
:101C400011F48B7F886093FF0DC0282F28712831F5
:101C500019F4877E846106C0282F2471243111F481
:101C60008B7E88612091030320FF0DC0382F3871CF
:101C7000383019F4877F816006C0382F31713130D8
:101C800011F48E7F886021FF0DC0282F2871283124
:101C900019F4877E816106C0282F2171213111F44A
:101CA0008E7E886194FD877E08957E30A0F4663034
:101CB00090F494E5899FF001112486E0789FE00D6F
:101CC000F11D1124E60FF11DEE0FFF1FE255FE4F2F
:101CD00085919491089580E090E00895CF93DF93EB
:101CE0008238910569F1B0F48133910509F477C028
:101CF00048F48932910509F469C08A32910509F4E2
:101D000073C092C08533910509F45BC08933910596
:101D1000B9F08AC0833E910591F138F4803E910577
:101D2000D1F0823E910531F17FC0863E9105D9F117
:101D3000873E9105E9F1843E910509F075C028C000
:101D40002091020320FD5BC021FD59C020910303B7
:101D500023FD61C069C08091020380FD4AC080916B
:101D6000030380FF4CC08091020384FD4EC183EECB
:101D700090E04DC18091020382FF3EC0F4CF80917C
:101D8000020382FD39C08091030380FD38C0EBCF90
:101D90008091030381FF39C08091020384FD35C126
:101DA00087EE90E034C18091020383FF2BC0F4CF13
:101DB0008091020383FD26C08091030381FD25C02D
:101DC000EBCF8091020385FD26C022C080910203E3
:101DD00085FD1EC08091030383FF1DC00AC0809152
:101DE000020386FD1BC01DC08091020386FD19C041
:101DF00015C089E390E00BC182EE90E008C180EE4F
:101E000090E005C186EE90E002C184EE90E0FFC054
:101E100085E390E0FCC089E290E0F9C08AE290E0BE
:101E2000F6C081E390E0F3C0811531E5930708F037
:101E300061C0811520E59207B0F09C012370332723
:101E400041E050E002C0440F551F2A95E2F7282FC9
:101E50002695269580E2289F90011124CA01822BA5
:101E6000932B9D68D4C0883E910568F5803E91050E
:101E700008F0CDC0883A9105B8F4853A910548F04C
:101E8000855AE82FF0E0E757FE4F808190E090649C
:101E9000BEC08130910509F4B5C008F4B6C08430E5
:101EA000910508F4B2C0B3C08F3B910508F0ADC0F6
:101EB000885AE82FF0E0EE0FFF1FE457FE4F8081B5
:101EC00091819464A4C0811530E2930758F4811580
:101ED00021E0920708F09BC08D3E910508F495C063
:101EE000906595C0811530E4930708F48EC09F700B
:101EF000906A8DC0811525E5920708F042C08115D2
:101F000034E5930728F0982F8827846F906A7FC064
:101F1000811523E59207B0F09C012370332741E03F
:101F200050E002C0440F551F2A95E2F7282F26954E
:101F3000269580E2289F90011124CA01822B932BC1
:101F40009A6865C0811532E5930728F4982F882791
:101F5000816F906A5CC09C012370332741E050E0A0
:101F600002C0440F551F2A95E2F7282F2695269583
:101F700080E2289F90011124CA01822B932B9C6838
:101F800046C0EC01C11589E5D807B0F4C11528E5B4
:101F9000D20728F09C2F8827806F906A38C0C1151F
:101FA00036E5D30790F58C2F0E94120E8F7190E0CA
:101FB000982F882790622BC0C1158AE5D80790F426
:101FC0008C2F8F700E94120E94E0D695C7959A952B
:101FD000E1F7CF70D0E0DC2FCC27D0699E01282B11
:101FE000C90115C0CE0190568115904270F48D2F15
:101FF0008F710E94120E282F2F71CE0199279062A7
:10200000922B05C081E090E002C080E090E0DF917B
:10201000CF91089568EE7EEF80E090E00E940A255F
:1020200060E082E090E00E94EC2460E083E090E0D9
:102030000E94EC241092680260E084E090E00E942C
:10204000EC2464E082E290E00E94EC2460E085E011
:1020500090E00E94EC2460E086E090E00E94EC2496
:102060006FEF87E090E00E94EC2440E050E0BA017E
:1020700088E090E00E94FE2460E08DE090E00E9405
:10208000EC2440E050E0BA0188E190E00E94FE2498
:1020900060E087E190E00E94EC2440E050E0BA016B
:1020A0008CE190E00E94FE2460E070E080E290E02D
:1020B0000E940A2540E050E0BA0188E190E00E94C9
:1020C000FE241092A7021092A8021092A902109268
:1020D000AA0284E08093A7024091A7025091A8022F
:1020E0006091A9027091AA028FE090E00E94FE2404
:1020F00040E050E0BA0183E190E00E94FE240895A0
:1021000080916702811110926702089580959091E5
:10211000F40289238093F4020895809590917302CC
:102120008923809373020895909173028091F40241
:10213000982B9093EE01809167028823D9F0892B28
:102140008093EE0180910A01882331F0809102038F
:1021500087FF02C08EE101C086E0E0EFF1E090E091
:10216000815028F021912223D9F39F5FF9CF91115B
:102170000E94801040E250E067E472E08EEE91E051
:102180000E94AE26892B21F180E2EEEEF1E0A7E479
:10219000B2E001900D928A95E1F7E091F902F09199
:1021A000FA023097A9F080910A01882359F08091B2
:1021B000020387FF07C08091EE018093EF0186E064
:1021C0008093EE010280F381E02D8EEE91E009957F
:1021D0000895209146028095822380934602982F8D
:1021E000977099F430E0482F082E000C550B2417F7
:1021F000350759F09091030392FF07C085958595A7
:1022000085950E94C421109246020895CF93C091F3
:102210000303C2FB992790F9981791F080FBC2F94C
:10222000C09303036091020384E090E00E94EC24D9
:102230006C2F82E290E00E94EC2482E00E94E91080
:10224000CF9108958091450290911402891719F059
:102250008F5F8770FBCF08950F931F93CF93DF930A
:102260008091130282958F7009F05AC080911002FC
:10227000882309F455C080914502109114026091A1
:102280000E0270910F02C0911102D091120291E0E2
:102290006F3F09F090E0292F06E0811709F440C054
:1022A000209721F07F3F21F030E003C031E001C0F2
:1022B000322F90E030FD31C0089FF001099FF00DF2
:1022C0001124DF01AB5EBD4F11963C91119737137E
:1022D00024C03C91361321C012963C9112973111C3
:1022E0001CC013964D915C9114974C1B5D0B483CA0
:1022F000510598F4809113028F70806180931302CE
:10230000E65EFD4F80818F70806180838EE092E079
:102310000E94F8080E94221103C001968770BDCF69
:10232000DF91CF911F910F910895A1E1B0E0EBE90A
:10233000F1E10C942C248C0185E0F801DE011D965E
:1023400001900D928A95E1F7F801E28090910E02DA
:1023500060910F02409111025091120241155105F6
:1023600031F06F3F31F481E09F3F19F403C081E009
:1023700001C080E0F82FF1709F2E80FD1BC1F80195
:1023800030812181C380D4808EE0A82E82E0B82ED7
:10239000F0901002F601E41BF50BFF2009F4C7C012
:1023A00080911302E83CF10508F092C0482F407F6D
:1023B00009F051C0621311C093130FC0FE2CE1103D
:1023C0000CC08F70806180931302C5010E94F808D1
:1023D00080911302F80185832AC1C114D10431F020
:1023E0002F3F31F481E03F3F19F403C081E001C089
:1023F00080E080FD03C081E08E2502C080E090E097
:10240000F82FF170FF2E80FF1CC080914502409193
:10241000140256E0841709F4E8C090E0589FF001D8
:10242000599FF00D1124EB5EFD4F6181261306C00C
:102430006081631303C06281E61203C00196877056
:10244000E9CFFE2CEE2009F4F2C0809113028160E6
:102450008093130249C0621306C0931304C0E110B5
:1024600002C0F80186C0C8010E94E221882351F110
:10247000EE2041F120911302822F82958F7090E01F
:10248000029774F080910E0290910F0298878F83CB
:102490001986DB86CA862C87CE0107960E94F8082B
:1024A00086E0F801AEE0B2E001900D928A95E1F786
:1024B0000E942C110AC06217C9F0C8010E94E221D3
:1024C00081111EC0C8010E94F808FF24F394AFC018
:1024D000482F407F81F78EE092E00E94F80886E066
:1024E000F50111928A95E9F7F12CA1C09313E5CF7C
:1024F000E110E3CFF8018583C8010E94F80854C0B9
:10250000EE2001F320911302822F82958F7090E0CC
:10251000029734F280910E0290910F029A83898380
:102520001B82DD82CC822E83CE010196B7CFE83CA0
:10253000F105D0F5FE2CEE2029F2621327C093138B
:1025400025C02091130220FD18C0822F82958F7024
:10255000482F50E04115510581F0F80125834F3097
:10256000510541F08F5F982F9295907F822F8F7049
:10257000892B8583C8010E94F80886E0F801AEE047
:10258000B2E001900D928A95E1F751C0C8010E9416
:10259000E221811185CF8091130281608093130223
:1025A000C8010E94F80843C086E0F50111928A959F
:1025B000E9F73DC0EE2009F485CFC8010E94E22171
:1025C000F82E882309F47ECF86E0F801AEE0B2E071
:1025D00001900D928A95E1F780910E0290910F0281
:1025E0000E9424210E942C1122C03D872E878D85B8
:1025F0009E850E942421292F22952F70223028F4B5
:102600009F7039F0811105C00BC0243028F49F70F1
:1026100049F4805E883020F0C8010E94F8089F2CA1
:10262000F92C05C0F8019581907F99F7F9CF8F2D8E
:102630006196EBE00C944824A0E0B0E0E2E2F3E124
:102640000C942F248091170190911801892B91F0FF
:10265000809169028F5F8093690281110BC00E9493
:102660006A0790E09093180180931701892B11F469
:102670000E94E1070BEA12E07801D0E0C0E087E0B9
:10268000C82ECC0E8C2F0E9451088C2D0E94510810
:102690008C2F0E94B4088F73F7019081891721F065
:1026A0008083DD24D39401C0D12C8C2D0E94B408EA
:1026B0008F73F7019781891719F0878381E001C033
:1026C00080E0D82ADD290E94A508CF5FFFEFEF1A2E
:1026D000FF0AC730A1F610926E02C0916D02CC23A2
:1026E00009F4C4C00E94A21E20916B0230916C02BA
:1026F000AC01421B530B9A0190936C0280936B02C6
:102700004F3F510509F018F4452B19F102C02FEF86
:1027100030E010926D0210926A02E091A502F091F1
:10272000A602AF01425F5F4F90E030E080818823D6
:1027300041F0281718F010829C2F03C0821B808361
:102740003C2F3196E417F50789F730936D0290938B
:102750006A02DD2309F47BC0E091A502F091A60294
:1027600080916E0290916D02ACEBB2E0AF01425FDE
:102770005F4F6EE1E80128813C91321779F030819A
:1027800031110CC060832C9398819227282F30E060
:10279000292B81E0232B09F480E091E031961196FA
:1027A0000F5F1F4FE417F50729F780936E02909390
:1027B0006D02C0916E022091A102809170029091F1
:1027C00071022223C9F1892B31F425982D9826987E
:1027D0002E9827982F988091700290917102917095
:1027E000892B79F480916F02882319F026982E980E
:1027F00002C0269A2E9A90916F0281E089278093D9
:102800006F0280917002909171028130984750F070
:102810001092A1028091B9020E94400710927102A9
:1028200010927002809170029091710201969093C3
:102830007102809370021EC0892BE1F01092710228
:10284000109270028091B9020E94400713C081E08B
:1028500090916A02992309F4ACCF81117DCF0E9437
:10286000A21E90936C0280936B0276CFD111F7CFAA
:1028700080E0EECF8C2FCDB7DEB7E8E00C944B2490
:102880008091990287FF11C08091E80082FD05C008
:102890008091A4028111F8CF11C08091E8008B775C
:1028A0000BC08091A402882349F08091E80080FF4A
:1028B000F8CF8091E8008E778093E8000895982FF4
:1028C000973068F59093E900981739F07091EC0013
:1028D0002091ED005091F00003C0242F762F50E09E
:1028E00021FD02C09F5FECCF3091EB003E7F309323
:1028F000EB003091ED003D7F3093ED003091EB0027
:1029000031603093EB007093EC002093ED00509316
:10291000F0002091EE0027FDE5CF80E008958F7054
:102920008093E90081E0089520919F023091A002F8
:102930002617370748F06115710539F42091E80032
:102940002E772093E80001C0B901FC0120E0611559
:10295000710579F18091A4028823F1F18530F1F1BC
:102960008091E80083FD3CC08091E80082FD2EC08C
:102970008091E80080FFEBCF2091F3008091F2007E
:1029800090E0922B6115710551F08830910538F473
:1029900021912093F100615071090196F3CF21E05C
:1029A000089709F020E08091E8008E778093E80096
:1029B000CECF2111CFCF0AC08091A402882361F02D
:1029C000853061F08091E80083FD0AC08091E800C5
:1029D00082FFF2CF80E0089582E0089583E00895B9
:1029E00081E008950895BC0184E00E94421E08958C
:1029F000BC0183E00E94421E0895AAE2B0E0E3E039
:102A0000F5E10C943424E9E9F2E081EA92E02091C6
:102A1000F10021938E179F07D1F780919A0283309E
:102A200009F463C030F4813071F0823009F49FC042
:102A3000B6C08A3009F48BC08B3009F46EC089307F
:102A400009F0ADC020C080919902813A09F0A7C079
:102A50008091E800877F8093E80080919D029091AB
:102A60009E02892B21F460E286E792E003C060E0D9
:102A700080E090E070E00E9494148091E8008B77F1
:102A80008093E8008CC080919902813209F087C060
:102A900080919D0290919E02009719F0039709F092
:102AA0007EC08091E800877F8093E8008091E800F5
:102AB00082FD05C08091A4028111F8CF70C02091E1
:102AC000F3008091F20090E0922B029731F4809114
:102AD000F100813011F0863021F48091F100809373
:102AE00075028091E8008B7756C080919902813AF7
:102AF00009F055C080919D0290919E02892B09F0AA
:102B00004EC08091E800877F8093E8008091E800C4
:102B100080FFFCCF80910A0139C0809199028132F7
:102B2000F1F580919D0290919E02892BC1F58091D3
:102B3000E800877F8093E8000E94401480919B0208
:102B400080930A01109273020E94192228C080917A
:102B50009902813221F58091E800877F8093E80017
:102B60000E94401480919C028093740218C080914E
:102B70009902813AA1F48091E800877F8093E80070
:102B80008091E80080FFFCCF809174028093F10077
:102B90008091E8008E778093E8000E944014809135
:102BA000E80083FFE4C18091990290919A02492F35
:102BB00050E04A30510508F0DAC1FA01E059FF4F00
:102BC0000C948725803821F0823809F0D0C108C0E4
:102BD0008091960290919702992389F082600FC0AC
:102BE00080919D028F70873008F0C1C18093E90009
:102BF0008091EB0085FB882780F91092E900909185
:102C0000E800977F9093E8008093F1001092F10024
:102C100070C1282F2D7F09F0AAC1882319F08230B6
:102C200061F0A5C180919B02813009F0A0C1933071
:102C300009F080E0809397022EC080919B02811161
:102C40002AC080919D028F702FEF280F263008F048
:102C50008EC18093E9002091EB0020FF1CC09330CF
:102C600021F48091EB00806214C09091EB009061A0
:102C70009093EB0021E030E0A90102C0440F551F02
:102C80008A95E2F74093EA001092EA008091EB0007
:102C900088608093EB001092E9008091E800877FC4
:102CA0008093E8000E94401462C1811160C11091BC
:102CB0009B021F778091E3008078812B8093E30053
:102CC0008091E800877F8093E8000E944014809103
:102CD000E80080FFFCCF8091E30080688093E300F0
:102CE000111102C082E001C083E08093A4023FC1C1
:102CF0008058823008F03BC120919B0230919C02A9
:102D00002C3D53E0350779F583E08A838AE2898395
:102D10004FB7F894DE01139620E03EE051E2E32F36
:102D2000F0E050935700E49120FF03C0E295EF706C
:102D30003F5FEF708E2F90E0EA3010F0C79601C031
:102D4000C0968D939D932F5F243149F74FBF80919B
:102D5000E800877F8093E8006AE270E0CE01019688
:102D60000E949414B4C080919D0290919E02432FC2
:102D7000552743305105A9F068F44130510509F455
:102D800005C14230510509F0F2C084E790E0E4E665
:102D9000F5E04BC04132510529F14232510589F12C
:102DA000E6C0C901992781309105A1F058F002973A
:102DB00009F0DDC0EAEEF5E0E4918E2F90E0EAEE56
:102DC000F5E030C0ECE2F6E0E4918E2F90E0ECE22A
:102DD000F6E028C0E2E0F6E0E4918E2F90E0E2E039
:102DE000F6E020C08430910508F0C1C0880F991F1B
:102DF000FC01EA53FE4F0190F081E02D89E090E064
:102E000014C08430910508F0B2C0FC01EE0FFF1F22
:102E1000E254FE4F0190F081E02DDC01A654BE4F3C
:102E20008C9190E0009709F4A2C02091E800277FE0
:102E30002093E80020919F023091A00228173907C3
:102E400008F4C90140E0009789F12091A4022223EF
:102E500009F43DC02530D9F12091E80023FD37C0A9
:102E60002091E80022FD2FC02091E80020FFEBCF49
:102E70004091F3002091F20030E0342B009759F09C
:102E80002830310540F444914093F1003196019788
:102E90002F5F3F4FF3CF41E02830310509F040E08C
:102EA0002091E8002E772093E800CDCF4111CDCFBF
:102EB0000AC08091A402882351F0853041F08091AE
:102EC000E80083FD04C08091E80082FFF2CF80918A
:102ED000E8008B778093E8004AC0803809F047C04B
:102EE0008091E800877F8093E8008091980280932A
:102EF000F1008091E8008E77D3CE811138C08091A7
:102F00009B0290919C02992702978CF58091E80092
:102F1000877F8093E80010919B02109398020E9493
:102F20004014111106C08091E30087FD02C081E0CA
:102F300001C084E08093A40242E061EC81E00E9441
:102F40005F1442E061EC82E00E945F1442E261ECB7
:102F500085E00E945F1442E261EC83E00E945F140E
:102F600042E260EC84E00E945F148091A4028091B0
:102F7000E80083FF10C08091E800877F8093E8001D
:102F80008091EB0080628093EB0005C082E190E0CD
:102F9000E8EDF5E04ACFAA96E3E00C9450241F92A6
:102FA0000F920FB60F9211242F933F934F935F937D
:102FB0006F937F938F939F93AF93BF93CF93DF9341
:102FC000EF93FF93C091E900CF708091EC00D82F70
:102FD000D17080FDD0E81092E9008091F000877FE9
:102FE0008093F00078940E94FD141092E900809183
:102FF000F00088608093F000CD2BCF70C093E90083
:10300000FF91EF91DF91CF91BF91AF919F918F9100
:103010007F916F915F914F913F912F910F900FBED4
:103020000F901F901895E8EDF0E080818E7F8083EF
:103030001092E2001092DA001092E100A0EEB0E0EF
:103040008C9181608C9380818F77808319BCA7EDF0
:10305000B0E08C918E7F8C9380818F7E80831092E4
:1030600072020895A0E0B0E0E8E3F8E10C942F24A8
:10307000C8EDD0E088818F7E8883E7EDF0E0808125
:103080008160808384E082BF81E0809372028881C6
:103090008E7F888302EE10E0F80110821092DA0031
:1030A00081EEC82ED12CF601108288818F7788831B
:1030B00088818068888388818F7D888319BC10927D
:1030C000A40210929802109297021092960290EE2B
:1030D000E92EF12CF70180818B7F808388818160CC
:1030E000888342E060E080E00E945F14F601808106
:1030F0008E7F8083F80180818160808380818860F9
:103100008083F70180818E7F8083888180618883BE
:10311000CDB7DEB7E8E00C944B241F920F920FB6A8
:103120000F9211242F933F934F935F936F937F934D
:103130008F939F93AF93BF93EF93FF938091E100A1
:1031400082FF09C08091E20082FF05C08091E1000A
:103150008B7F8093E1008091DA0080FF2AC080910C
:10316000D80080FF26C08091DA008E7F8093DA003D
:103170008091D90080FF18C080E189BD82E189BDBE
:1031800009B400FEFDCF81E08093A4028091720219
:1031900081110FC00E9413180E9432188091E20022
:1031A00084608093E20005C019BC1092A4021092C2
:1031B00072028091E10080FF17C08091E20080FFE1
:1031C00013C08091E2008E7F8093E2008091E20044
:1031D00080618093E2008091D80080628093D80063
:1031E00019BC85E08093A4028091E10084FF30C087
:1031F0008091E20084FF2CC080E189BD82E189BD1D
:1032000009B400FEFDCF8091D8008F7D8093D80057
:103210008091E1008F7E8093E1008091E2008F7EBB
:103220008093E2008091E20081608093E2008091CF
:103230009802882311F084E007C08091E30087FDA5
:1032400002C081E001C083E08093A4028091A402C7
:103250008091E10083FF27C08091E20083FF23C0BB
:103260008091E100877F8093E10082E08093A40257
:10327000109298028091E1008E7F8093E10080910E
:10328000E2008E7F8093E2008091E2008061809373
:10329000E20042E060E080E00E945F148091F00074
:1032A00088608093F000FF91EF91BF91AF919F9163
:1032B0008F917F916F915F914F913F912F910F90DF
:1032C0000FBE0F901F9018952091E4003091E500FB
:1032D00095E64091EC00842F817040FF23C08091DF
:1032E000E80080FD1DC08091A402882399F08530FC
:1032F00099F08091EB0085FD11C04091E400509160
:10330000E5002417350729F3915011F09A01E1CF18
:1033100084E0089582E0089583E0089581E00895AF
:1033200080E008954091E80042FFDDCF0895EF92DC
:10333000FF920F931F93CF93DF937C018B010E9429
:103340006419811119C0E70101151105A1F08091DF
:10335000E80085FD0AC08091E8008E778093E80040
:103360000E946419882381F307C089918093F1003A
:1033700001501109E9CF80E0CDB7DEB7E6E00C944B
:103380004D24CF932091A402243029F5C091E90067
:10339000CF703091EC00232F217030FD20E8C22B3C
:1033A00023E02093E9002091E80020FF11C040E0D5
:1033B00050E060E270E00E949719882321F010929B
:1033C000A1021092A2028091E8008E778093E8001B
:1033D000CF70C093E900CF910895ACE5B0E0E3EF82
:1033E000F9E10C94282485B7806885BF85B780688B
:1033F00085BF84B7877F84BF0FB6F894A895809166
:103400006000886180936000109260000FBE90E0C1
:1034100080E80FB6F89480936100909361000FBE2E
:1034200080E19EE09093DB018093DA010E94131803
:103430000E9432188091E20084608093E2007894C8
:103440008091A4028823A1F01091E9001F7090914F
:10345000EC00892F817090FD80E8182B1092E90014
:103460008091E80083FD0E94FD141F701093E90015
:1034700082E084BD93E095BD9AEF97BD80936E0086
:103480000E946A0790E090931801809317010E94B0
:10349000A5080E94EB08EBEAF2E0ACEBB2E0119277
:1034A0001D9222E0E93BF207D1F78EE090E00E9406
:1034B0008D258093A5029093A602FC010E96119291
:1034C000E817F907E1F789EA8093800089E08093A3
:1034D000810024982C983F988AB18F7C8AB96E9885
:1034E000479A8BB180638BB9769A8FE090E00E9407
:1034F000D0246093A7027093A8028093A9029093AE
:10350000AA0267703FEF639FB0011124759567951C
:1035100075956795772770938900609388007093FD
:103520008B0060938A0070938D0060938C000E94E2
:10353000E10780E090E00E94D624883E9E4F11F083
:103540000E940A1082E090E00E94C8248093CA0280
:1035500084E090E00E94C824182F82E290E00E944C
:10356000C824212F30E0382B30930303209302032B
:1035700083E090E00E94C8240E94DD218091B9027E
:103580000E9440078BE091E09093FA028093F90249
:1035900008E110E07AECE72E72E0F72E8091A402A9
:1035A000853009F057C040E4B42E50E1C52E62E1E9
:1035B000D62E8091A402853009F046C08091A402E5
:1035C000843009F11092FD020FB6F894A89500938B
:1035D00060000FBEB092600083B7817F846083BFBC
:1035E00083B7816083BF7894889583B78E7F83BFCC
:1035F0000FB6F894A8958091600088618093600070
:10360000109260000FBE80919702882391F20E9471
:103610006A0790E090931801809317010E94A50813
:103620000E94EB08ECEBF2E0119282E0EA3CF80732
:10363000D9F70E941C13ECEBF2E0819181119EC23C
:10364000EE16FF06D1F7B5CF109273020E94192231
:103650000E942B1F0E941C133BECA32E32E0B32EC2
:10366000ACEBB2E0F50191918D91892792E0E93DB3
:10367000F90719F08823B9F332C0811130C00E94D4
:10368000A21E6C018091BA029091BB02C816D906A5
:1036900009F474C08FEF64968FAF649765968FAF0F
:1036A000659766961FAE66970E94A21E8160782F6E
:1036B00068969FAF8EAF689764964FAD6497659696
:1036C0005FAD659766966FAD669768968FAD6897A4
:1036D0000E947506D092BB02C092BA024FC02CEB7A
:1036E000822E22E0922ED12CF40151904F01F5014F
:1036F0006080652489F1C12C77247394862D8721FD
:1037000021F16996CFAE69976A96DFAE6A9791E02C
:10371000852D872109F490E06B969FAF6B970E94EF
:10372000A21E8160782F6D969FAF8EAF6D976996C0
:103730004FAD69976A965FAD6A976B966FAD6B9761
:103740006D968FAD6D970E947506C394770CF6E069
:10375000CF12D4CFF5015082D394FFEFAF1ABF0A36
:103760002EE0D212C1CF8FB7F8944091FE02509153
:10377000FF0260910003709101038FBF8091F502F9
:103780009091F602892BC9F08091D9029091DA02CA
:103790000E94931E893C910580F08091F5023EE0E5
:1037A000839FC0011124FC01E25EFE4F208122FDB7
:1037B00004C0875E9E4F0E94521F85E0EFEEF2E04C
:1037C000DE01119601900D928A95E1F71092F002B8
:1037D0001092F1021092F2021092F302DA80D110EC
:1037E00004C08B81882309F452C08091ED0290912E
:1037F000EE020E94931E9C019091E902992309F424
:10380000D5C12531310508F442C09F3F19F09F5FB3
:103810009093E902DD2061F00E945B201D1414F4F6
:1038200091E001C09FEF899F802D11248093F002C9
:10383000DB80DD2061F00E945B201D1414F491E018
:1038400001C09FEF899F802D11248093F102309158
:10385000F0023323E1F02091F1022223C1F045EB85
:103860003403C0011124992319F09093F00203C08E
:1038700081E08093F00235EB2303C00111249923EA
:1038800019F09093F10203C081E08093F102DC8093
:10389000D11004C08D81882309F452C08091EB02BD
:1038A0009091EC020E94931E9C019091E802992352
:1038B00009F480C12437310508F442C09F3F19F054
:1038C0009F5F9093E802DD2061F00E943B201D1471
:1038D00014F491E001C09FEF899F802D1124809303
:1038E000F202DD80DD2061F00E943B201D1414F403
:1038F00091E001C09FEF899F802D11248093F302F6
:103900003091F2023323E1F02091F3022223C1F03F
:1039100045EB3403C0011124992319F09093F2026E
:1039200003C081E08093F20235EB2303C001112430
:10393000992319F09093F30203C081E08093F3027E
:1039400045E050E0BE016F5F7F4F8FEE92E00E9436
:10395000AE26892BA9F48091F00281110FC08091CD
:10396000F10281110BC08091F202811107C081E048
:103970009091F302911103C080E001C081E080FDCD
:103980000E949D1F85E0FE013196AFEEB2E00190EE
:103990000D928A95E1F70E942B1F9091DB02891707
:1039A00069F08093DB028FB7F8944091FE0250914A
:1039B000FF0260910003709101038FBF8091A40208
:1039C000843009F0EBCD8093E9008091E80082FF1C
:1039D000E5CD8091E80085FF24C00E946419811123
:1039E0001EC090E2C92ED12C5E0141E2A40EB11C92
:1039F00009C08091F100F50181935F01F1E0CF1AD8
:103A0000D10869F08091E80085FDF3CF8091E8004E
:103A10008B778093E8000E946419882399F391E0E2
:103A200001C090E08091E8008B778093E8009923B3
:103A300009F4B4CD89A18230A9F050F48823B9F1FA
:103A4000813009F0ABCD82EEC82E82E0D82E3CC08A
:103A5000853009F48AC0863009F487C0843009F0C3
:103A60009DCD77C08BA19AA19093DC028093DD025B
:103A70008DA19CA19093DE028093DF028FA19EA175
:103A80009093E0028093E10242E150E063E270E053
:103A9000CE018F5B9F4F0E94B82484E0898381E030
:103AA0008093A2028EEF8A831092A10262C01982D3
:103AB0008CE0EEECF1E0DE01129601900D928A9519
:103AC000E1F78EEF8D8755C00E947D1FF60181932F
:103AD00091936F01F8EECF16F2E0DF06A9F781E0CF
:103AE00089839091E2029A839091E3029B83909163
:103AF000E4029C839091E5029D839091E6029E836F
:103B00009091E7029F839EEF98878093A102CE0158
:103B100001960E94C11942E150E063E270E0CE01DB
:103B200001960E94B824FE01319682E183301CF098
:103B30009189928B01C0128A815031978F3FB1F7E2
:103B400042E150E063E270E0CE0101960E94DC2485
:103B500025CD8091A202882309F420CD80E00E9427
:103B60009A218AA10E94D12119CD8FEF898384E007
:103B70008A83CE0101960E94C11910CDC9BCD9BC5F
:103B800009B400FEFDCF8091D8008F7D8093D800CE
:103B90008091E00082608093E0008091E00081FDF0
:103BA000FCCF109273020E94192203CD232B09F03F
:103BB0002ECE6DCE2139314008F082CEC1CE80911B
:103BC0007502089522E02093E9002FEF3091E8007C
:103BD000215035FD06C035ED3A95F1F70000211171
:103BE000F5CF2091E80025FF0BC040E050E065E0F4
:103BF00070E00E9497198091E8008E778093E8002A
:103C00000895CF93DF9320910A01222339F0209168
:103C1000020327FF03C060E225E002C068E021E064
:103C20002093E9002FEF3091E800215035FD06C0C8
:103C300035ED3A95F1F700002111F5CF2091E8001C
:103C400025FF1DC0EC0180910A01811105C040E0F3
:103C500050E068E070E003C070E040E050E0CE016A
:103C60000E9497198091E8008E778093E80080E2A7
:103C7000FE01A6E7B2E001900D928A95E1F7DF918F
:103C8000CF91089580930403709306036093050316
:103C90008091A402843001F585E08093E9008FEFE4
:103CA0009091E800815095FD06C095ED9A95F1F749
:103CB00000008111F5CF8091E80085FF0DC040E044
:103CC00050E063E070E084E093E00E9497198091F7
:103CD000E8008E778093E800089578941F920F9201
:103CE0000FB60F9211248F939F93AF93BF93809140
:103CF000FE029091FF02A0910003B0910103019692
:103D0000A11DB11D8093FE029093FF02A0930003BA
:103D1000B0930103BF91AF919F918F910F900FBE10
:103D20000F901F9018959C014FB7F8948091FE0258
:103D30009091FF02A0910003B09101034FBF821B3D
:103D4000930B08952FB7F8948091FE029091FF0293
:103D5000A0910003B09101032FBF08951F920F920D
:103D60000FB60F9211248F939F93AF93BF938091BF
:103D7000FD02811113C08091FE029091FF02A0917B
:103D80000003B09101034196A11DB11D8093FE0275
:103D90009093FF02A0930003B0930103BF91AF91F2
:103DA0009F918F910F900FBE0F901F9018952091AB
:103DB0000A012223C9F02091020327FF15C0262FF4
:103DC0002695269526952E31C8F4FC01E20FF11DAB
:103DD000677081E090E001C0880F6A95EAF78095EE
:103DE0009281892382830895FC01069622816213C1
:103DF00001C012823196E817F907C1F708952091A2
:103E0000FB023091FC022817390771F09093FC02F5
:103E10008093FB02E091F902F091FA02309721F0D1
:103E20000084F185E02D099508952091F7023091E5
:103E3000F8022817390771F09093F8028093F7027F
:103E4000E091F902F091FA02309721F00680F781B3
:103E5000E02D09950895E091F902F091FA0230976A
:103E600029F00190F081E02D0995089580E00895F2
:103E7000CF93DF93EC01EA85FB85309719F06C85D1
:103E80007D8509958B810E9486108C810E948D1002
:103E90000E94941086E0FE0111928A95E9F7DF9165
:103EA000CF910895CF93DF93EC018D8181FD18C0F0
:103EB00082608D839091F4028B81892B8093F40230
:103EC000909173028C81892B809373020E949410CD
:103ED000E885F985309721F06C857D85CE010995BF
:103EE0001092F6021092F5028D8180FD03C0CE0182
:103EF0000E94381FDF91CF910895CF93DF930E94E6
:103F0000A82466E070E00E947325D82F0E94A824A0
:103F10006EE070E00E947325C82F6D2F782F80E02F
:103F20000E94550E0497C59718F48D2F9C2F02C040
:103F30000E947D1FDF91CF9108950E94A21E2091C3
:103F4000F002211104C02091F102222321F090936C
:103F5000EE028093ED022091F202211104C0209123
:103F6000F302222321F09093EC028093EB02E09184
:103F7000F902F091FA02309731F00480F581E02DDA
:103F80008FEE92E0099508958D3E39F49091F102FB
:103F900097FF35C01092F10259C08E3E29F49091DE
:103FA000F1021916BCF32BC09091F0028F3E29F458
:103FB00097FF25C01092F00249C0803F19F41916EE
:103FC000CCF31DC09091F202893F29F41916BCF47C
:103FD0001092F2023BC08A3F19F497FF10C0F8CF4D
:103FE0008B3F39F49091F30297FF09C01092F302CE
:103FF0002DC08C3F21F49091F3021916BCF39FE081
:10400000980F983080F421E030E0A90102C0440FFD
:10401000551F9A95E2F7CA0180959091EF02892386
:104020008093EF0213C08D3F21F48091EA028E7FCE
:104030000BC08E3F21F48091EA028D7F05C08F3F37
:1040400029F48091EA028B7F8093EA028091F0024A
:10405000811106C08091F102811102C01092E90223
:104060008091F202811106C08091F302811102C099
:104070001092E80208958091EA0280FD18C081FD47
:1040800014C082FD16C08091E802882381F08C3331
:1040900080F425E0829FC00111246CE370E00E944F
:1040A0007325862F672B19F005C082E0089581E003
:1040B000089585E008958091EA0280FD17C081FD92
:1040C00017C082FD19C08091E902882399F08C33D2
:1040D00098F428E3829FC00111246CE370E00E94F1
:1040E0007325862F672B49F481E008958EE00895AB
:1040F0008CE1089588E0089588E308958D3E21F4C9
:104100000E945B20819504C08E3E29F40E945B20B2
:104110008093F10208958F3E21F40E945B208195E7
:1041200004C0803F29F40E945B208093F002089530
:10413000893F19F40E943B2005C08A3F31F40E9458
:104140003B2081958093F20208958B3F21F40E94D9
:104150003B20819504C08C3F29F40E943B20809332
:10416000F30208959FE0980F983078F421E030E052
:10417000A90102C0440F551F9A95E2F7CA01909118
:10418000EF02892B8093EF0208958D3F21F48091F7
:10419000EA0281600BC08E3F21F48091EA028260C6
:1041A00005C08F3F29F48091EA0284608093EA027F
:1041B000089580E090E00E94151F80E090E00E944A
:1041C000FF1E1092F4020E949410EFEEF2E085E0E0
:1041D000DF011D928A95E9F71092E9021092E80238
:1041E0001092EA020E949D1F0895CF92DF92FF92E3
:1041F0000F931F93CF93DF936C010091B9028091CD
:104200006802082BC7E0D0E010E0C8010C2E02C005
:10421000959587950A94E2F780FD04C02197A8F749
:10422000F12C09C0FC2EB6018C2F0E94550E0E9465
:104230006E0E019799F38F2DDF91CF911F910F9102
:10424000FF90DF90CF900895CF93DF93EC010E9411
:10425000F520BE010E94550E0E946E0EDF91CF9197
:104260000895292F9E3078F5863068F590E036E085
:10427000239F800D911D1124682F677023E0969570
:1042800087952A95E1F7FC01EE0FFF1FE80FF91F54
:10429000E95FFC4F40E050E080E0219130E0062EE5
:1042A00002C0369527950A94E2F721703327042E31
:1042B00001C0220F0A94EAF7822B4F5F5F4F433011
:1042C000510559F7089580E00895292F9E3088F50B
:1042D000863078F590E036E0239F800D911D112403
:1042E000282F277051E001C0550F2A95EAF723E0E7
:1042F000969587952A95E1F7FC01EE0FFF1FE80FD1
:10430000F91FE95FFC4F20E030E070E04081CB0115
:10431000022E02C0969587950A94E2F781708195E6
:1043200084278523842781932F5F3F4F23303105D6
:1043300069F70895A0E2B0E0E0EAF1E20C943424D9
:104340000E944007182F8091A2028823A9F02FEF26
:1043500080E792E0215080409040E1F700C00000EB
:1043600085E08983812F0E9414078A838EEF8B83D7
:10437000CE0101960E94C1191093B9020E94D92062
:10438000A096E3E00C94502421E030E001C0220F1D
:104390008A95EAF720958091B90282230E949A219A
:1043A000089521E030E001C0220F8A95EAF780915C
:1043B000B902822B0E949A210895809368020E947C
:1043C000D9200895CF93FC0180819181238134818C
:1043D000232B31F09F3F31F491E08F3F19F403C05C
:1043E00091E001C090E0C92FC17090FD1CC0808198
:1043F00091810E94242192959F70963079F010F45B
:10440000925001C09A50923088F4803F71F018F4B5
:10441000883E60F40AC0843F49F407C0883E28F013
:10442000813F21F402C0C0E001C0C1E08C2FCF91D8
:10443000089580910A01882331F08091020387FF5B
:1044400002C08EE101C086E0E0EFF1E0DF011D92E5
:104450008A95E9F70E94D9200895882321F00E94C7
:1044600086100E9494100895882339F09091F402E8
:10447000892B8093F4020E9494100895882321F0E0
:104480000E948D100E9494100895882339F0909115
:104490007302892B809373020E94941008958823DD
:1044A00091F19CEF980F913A30F4682F8EEE91E0E5
:1044B0000E94D71E0DC090E2980F983060F487706C
:1044C00091E001C0990F8A95EAF7892F0E948D101B
:1044D0000E94941008959BE5980F933028F480E093
:1044E00090E00E94151F089598E5980F973128F4E1
:1044F00080E090E00E94FF1E08958D3E20F00E9413
:10450000C41F0E949D1F0895CF93882309F49FC064
:10451000C82F8CEF8C0F813A08F05BC080910A01A4
:104520008823E1F08091020387FF18C0EC2FE69505
:10453000E695E695F0E0E251FE4F8281282F30E0CB
:104540004C2F477081E090E002C0880F991F4A9578
:10455000E2F782239323892B59F411C0E0EFF1E0B5
:104560008191C81729F081E0E63FF807C9F707C035
:104570006C2F8EEE91E00E94D71E0E9494108091C5
:104580000A018823B1F08091020387FF12C0EC2F4B
:10459000E695E695E695F0E0E251FE4FC77081E0C2
:1045A00090E001C0880FCA95EAF79281892B828337
:1045B00020C0A0EFB1E0EFEF80E09D91C917C9F0F6
:1045C000EF3F19F4911101C0E82F8F5F8630A9F7F2
:1045D00035C080E28C0F883078F4C77081E090E0BD
:1045E00001C0880FCA95EAF790917302892B8093D6
:1045F00073020E9494102BC0EBE5EC0FE33040F403
:10460000F0E0E757FE4F808190E00E94151F1FC029
:10461000E8E5EC0FE73150F4F0E0EE0FFF1FE45750
:10462000FE4F808191810E94FF1E11C0CD3E78F027
:104630008C2F0E947E200E949D1F09C0EF3FC9F26F
:104640000E2E000CFF0BE251FE4FC283D2CFCF9152
:1046500008951F93CF93DF93182FEB010E948422BC
:10466000209741F08FE99FE00197F1F700C000002B
:104670002197F6CF812F0E944F22DF91CF911F917A
:1046800008951092B9008CE08093B8000895A0E0DE
:10469000B0E0EDE4F3E20C942C24B82EEB010E9480
:1046A000A21E6C01C431D10558F0CF3F8FEFD8075F
:1046B00059F0CE0164E170E00E9411247B0107C033
:1046C000EE24E394F12C03C025E0E22EF12C84E8E3
:1046D000A82E94EA992E1092BC009092BC000E94E1
:1046E000A21E8C018091BC0087FD07C0C8010E94FA
:1046F000931EE816F906B0F729C08091B900887FAB
:10470000883041F08091B900887F803119F00FEF37
:104710001FEF1EC0B092BB00A092BC000E94A21E60
:104720008C018091BC0087FD07C0C8010E94931EC8
:10473000E816F906B0F70AC08091B900887F883181
:1047400011F0803421F700E010E00EC00EEF1FEFF3
:10475000CF3F8FEFD80709F4BECFC6010E94931E4A
:10476000C817D90708F0B7CFC801CDB7DEB7EBE05F
:104770000C9448240F931F93CF93DF93EB01809306
:10478000BB0084E88093BC000E94A21E8C01809133
:10479000BC0087FD0DC0CF3F8FEFD807C1F3C80124
:1047A0000E94931EC817D90790F78EEF9FEF0CC099
:1047B0002091B900287F81E090E0283211F480E058
:1047C00090E0919581959109DF91CF911F910F9183
:1047D00008950F931F93CF93DF93EC0184E88093A8
:1047E000BC000E94A21E8C018091BC0087FD0DC000
:1047F000CF3F8FEFD807C1F3C8010E94931EC8179F
:10480000D90790F78EEF9FEF03C08091BB0090E037
:10481000DF91CF911F910F91089584E98093BC009F
:104820000895AA1BBB1B51E107C0AA1FBB1FA617F7
:10483000B70710F0A61BB70B881F991F5A95A9F749
:1048400080959095BC01CD0108952F923F924F9293
:104850005F926F927F928F929F92AF92BF92CF9210
:10486000DF92EF92FF920F931F93CF93DF93CDB719
:10487000DEB7CA1BDB0B0FB6F894DEBF0FBECDBF91
:1048800009942A88398848885F846E847D848C8462
:104890009B84AA84B984C884DF80EE80FD800C816B
:1048A0001B81AA81B981CE0FD11D0FB6F894DEBF4E
:1048B0000FBECDBFED0108958F929F92AF92BF9230
:1048C000CF92DF92EF92FF92CF93DF93EC0168815A
:1048D00079818A819B81611571058105910521F49A
:1048E00064E279ED8BE597E02DE133EF41E050E0B4
:1048F0000E94102549015A019B01AC01A7EAB1E4CD
:104900000E942F256B017C01ACEEB4EFA501940150
:104910000E943D25DC01CB018C0D9D1DAE1DBF1DF0
:10492000B7FF03C00197A109B04888839983AA8380
:10493000BB839F77DF91CF91FF90EF90DF90CF9077
:10494000BF90AF909F908F9008950E945C2408952F
:1049500080E091E00E945C240895A0E0B0E08093A4
:10496000000190930101A0930201B0930301089507
:10497000DC01CB01FC01F999FECF06C0F2BDE1BD1F
:10498000F89A319600B40D9241505040B8F708950E
:10499000F999FECF92BD81BDF89A992780B5089507
:1049A000A6E1B0E044E050E00C94BA24A8E1B0E005
:1049B00042E050E00C94BA24DC01A40FB51F415032
:1049C000504048F0CB01840F951F2E910E94ED249A
:1049D00041505040D0F70895262FF999FECF92BD4F
:1049E00081BDF89A019700B4021639F01FBA20BDB4
:1049F0000FB6F894FA9AF99A0FBE08950396272FE6
:104A00000E94ED240E94EC24252F0E94ED24242FE7
:104A10000C94ED240196272F0E94ED240C94EC2495
:104A2000052E97FB1EF400940E94272557FD07D002
:104A30000E94422507FC03D04EF40C942725509584
:104A40004095309521953F4F4F4F5F4F089590957A
:104A50008095709561957F4F8F4F9F4F08950E946D
:104A60006425A59F900DB49F900DA49F800D911D6E
:104A700011240895B7FF0C942F250E942F25821B27
:104A8000930B0895A1E21A2EAA1BBB1BFD010DC0BA
:104A9000AA1FBB1FEE1FFF1FA217B307E407F507EE
:104AA00020F0A21BB30BE40BF50B661F771F881FCA
:104AB000991F1A9469F760957095809590959B0160
:104AC000AC01BD01CF010895A29FB001B39FC00109
:104AD000A39F700D811D1124911DB29F700D811D2A
:104AE0001124911D089597FB072E16F4009407D00A
:104AF00077FD09D00E94112407FC05D03EF4909563
:104B000081959F4F0895709561957F4F0895EE0FA1
:104B1000FF1F0590F491E02D09940F931F93CF93FD
:104B2000DF938230910510F482E090E0E0912A0357
:104B3000F0912B0320E030E0A0E0B0E0309719F1D5
:104B4000408151810281138148175907C8F08417A9
:104B5000950769F4109731F012960C9312971396FB
:104B60001C9327C000932A0310932B0322C0211506
:104B7000310519F04217530718F49A01BD01EF01EE
:104B8000DF01F801DBCF21153105F9F0281B390BC6
:104B90002430310580F48A819B816115710521F0F3
:104BA000FB019383828304C090932B0380932A0399
:104BB000FE01329644C0FE01E20FF31F81939193F0
:104BC00022503109398328833AC02091280330913B
:104BD0002903232B41F420910601309107013093E2
:104BE0002903209328032091040130910501211508
:104BF000310541F42DB73EB74091080150910901AC
:104C0000241B350BE0912803F0912903E217F307E9
:104C1000A0F42E1B3F0B2817390778F0AC014E5F2C
:104C20005F4F2417350748F04E0F5F1F509329033D
:104C3000409328038193919302C0E0E0F0E0CF011C
:104C4000DF91CF911F910F910895CF93DF9300973C
:104C500009F481C0FC01329713821282A0912A03C9
:104C6000B0912B03109781F420813181820F931F23
:104C700020912803309129032817390751F5F09323
:104C80002903E093280367C0ED0120E030E0CE1750
:104C9000DF0740F44A815B819E0141155105F1F027
:104CA000EA01F5CFD383C28340815181840F951FE0
:104CB000C817D90759F488819981840F951F0296E6
:104CC000918380838A819B8193838283211531051F
:104CD00029F4F0932B03E0932A033DC0E901FB8301
:104CE000EA8349915991C40FD51FEC17FD0761F470
:104CF00080819181840F951F0296E90199838883B1
:104D0000828193819B838A83E0E0F0E012968D910B
:104D10009C911397009719F0FD01DC01F7CF8D915D
:104D20009C9111979D012E5F3F4F820F931F209101
:104D30002803309129032817390769F4309729F49B
:104D400010922B0310922A0302C013821282B09396
:104D50002903A0932803DF91CF910895FB01DC0183
:104D600004C08D910190801921F441505040C8F742
:0A4D7000881B990B0895F894FFCFFB
:104D7A000100000000002C03200001DF1D011EE2DB
:104D8A001DF814F314F21420000000000000006261
:104D9A000555065F040000000000000000460535C6
:104DAA0006420400000000000000002A051506253E
:104DBA000400000000000000000E05F505080400CC
:104DCA0000000000000000EF04D505EB030000001E
:104DDA000000000000D304BE05D20300000000005A
:104DEA000000000B059E05B503000000000000004E
:104DFA0000B7047E0598030000818283E200E9007F
:104E0A00EA00B500B600B700CD008301CC008A01E4
:104E1A00920194012102230224022502260227027A
:104E2A002A02B300B4006F0070004022476D2405C7
:104E3A000205BB044E0476058F05AF05C805363357
:0A4E4A0070306E2F586E305778005C
:00000001FF
